{
  "_format": "hh-sol-artifact-1",
  "contractName": "InsuranceClaims",
  "sourceName": "contracts/InsClaims.sol",
  "abi": [
    {
      "anonymous": false,
      "inputs": [
        {
          "indexed": true,
          "internalType": "bytes32",
          "name": "claimId",
          "type": "bytes32"
        }
      ],
      "name": "ClaimApproved",
      "type": "event"
    },
    {
      "anonymous": false,
      "inputs": [
        {
          "indexed": true,
          "internalType": "bytes32",
          "name": "claimId",
          "type": "bytes32"
        }
      ],
      "name": "ClaimRejected",
      "type": "event"
    },
    {
      "anonymous": false,
      "inputs": [
        {
          "indexed": true,
          "internalType": "bytes32",
          "name": "claimId",
          "type": "bytes32"
        },
        {
          "indexed": false,
          "internalType": "string",
          "name": "description",
          "type": "string"
        },
        {
          "indexed": false,
          "internalType": "uint256",
          "name": "amount",
          "type": "uint256"
        },
        {
          "indexed": true,
          "internalType": "address",
          "name": "claimant",
          "type": "address"
        }
      ],
      "name": "ClaimSubmitted",
      "type": "event"
    },
    {
      "inputs": [
        {
          "internalType": "bytes32",
          "name": "claimId",
          "type": "bytes32"
        }
      ],
      "name": "approveClaim",
      "outputs": [],
      "stateMutability": "nonpayable",
      "type": "function"
    },
    {
      "inputs": [
        {
          "internalType": "bytes32",
          "name": "",
          "type": "bytes32"
        }
      ],
      "name": "claims",
      "outputs": [
        {
          "internalType": "string",
          "name": "description",
          "type": "string"
        },
        {
          "internalType": "uint256",
          "name": "amount",
          "type": "uint256"
        },
        {
          "internalType": "bool",
          "name": "approved",
          "type": "bool"
        },
        {
          "internalType": "address",
          "name": "claimant",
          "type": "address"
        }
      ],
      "stateMutability": "view",
      "type": "function"
    },
    {
      "inputs": [
        {
          "internalType": "bytes32",
          "name": "claimId",
          "type": "bytes32"
        }
      ],
      "name": "getClaim",
      "outputs": [
        {
          "internalType": "string",
          "name": "",
          "type": "string"
        },
        {
          "internalType": "uint256",
          "name": "",
          "type": "uint256"
        },
        {
          "internalType": "bool",
          "name": "",
          "type": "bool"
        },
        {
          "internalType": "address",
          "name": "",
          "type": "address"
        }
      ],
      "stateMutability": "view",
      "type": "function"
    },
    {
      "inputs": [
        {
          "internalType": "bytes32",
          "name": "claimId",
          "type": "bytes32"
        }
      ],
      "name": "rejectClaim",
      "outputs": [],
      "stateMutability": "nonpayable",
      "type": "function"
    },
    {
      "inputs": [
        {
          "internalType": "bytes32",
          "name": "claimId",
          "type": "bytes32"
        },
        {
          "internalType": "string",
          "name": "description",
          "type": "string"
        },
        {
          "internalType": "uint256",
          "name": "amount",
          "type": "uint256"
        }
      ],
      "name": "submitClaim",
      "outputs": [],
      "stateMutability": "nonpayable",
      "type": "function"
    }
  ],
  "bytecode": "0x6080604052348015600f57600080fd5b50610cae8061001f6000396000f3fe608060405234801561001057600080fd5b50600436106100575760003560e01c806313be4f9e1461005c5780633719f09614610078578063c9100bcb14610094578063cf4cd4a8146100c7578063eff0f592146100e3575b600080fd5b6100766004803603810190610071919061061c565b610116565b005b610092600480360381019061008d919061061c565b6101ae565b005b6100ae60048036038101906100a9919061061c565b61020c565b6040516100be949392919061074e565b60405180910390f35b6100e160048036038101906100dc91906108fb565b610364565b005b6100fd60048036038101906100f8919061061c565b610490565b60405161010d949392919061074e565b60405180910390f35b600080828152602001908152602001600020600080820160006101399190610575565b60018201600090556002820160006101000a81549060ff02191690556002820160016101000a81549073ffffffffffffffffffffffffffffffffffffffff02191690555050807ffb7b3e2048522a78e30e32b60bb6c23e1937f5261ad0ac430dcffd1998653e4660405160405180910390a250565b600160008083815260200190815260200160002060020160006101000a81548160ff021916908315150217905550807fd2c2344dc15f69e429f80fd1fd21612bcc0338606f874a93851905c9c75f58e760405160405180910390a250565b606060008060008060008087815260200190815260200160002060405180608001604052908160008201805461024190610999565b80601f016020809104026020016040519081016040528092919081815260200182805461026d90610999565b80156102ba5780601f1061028f576101008083540402835291602001916102ba565b820191906000526020600020905b81548152906001019060200180831161029d57829003601f168201915b50505050508152602001600182015481526020016002820160009054906101000a900460ff161515151581526020016002820160019054906101000a900473ffffffffffffffffffffffffffffffffffffffff1673ffffffffffffffffffffffffffffffffffffffff1673ffffffffffffffffffffffffffffffffffffffff1681525050905080600001518160200151826040015183606001519450945094509450509193509193565b60405180608001604052808381526020018281526020016000151581526020013373ffffffffffffffffffffffffffffffffffffffff1681525060008085815260200190815260200160002060008201518160000190816103c59190610b76565b506020820151816001015560408201518160020160006101000a81548160ff02191690831515021790555060608201518160020160016101000a81548173ffffffffffffffffffffffffffffffffffffffff021916908373ffffffffffffffffffffffffffffffffffffffff1602179055509050503373ffffffffffffffffffffffffffffffffffffffff16837fcbb5b55419e2b76dfc6d1b1cb78b1a3d27cdda232693d14eb78cd3267b430c0b8484604051610483929190610c48565b60405180910390a3505050565b60006020528060005260406000206000915090508060000180546104b390610999565b80601f01602080910402602001604051908101604052809291908181526020018280546104df90610999565b801561052c5780601f106105015761010080835404028352916020019161052c565b820191906000526020600020905b81548152906001019060200180831161050f57829003601f168201915b5050505050908060010154908060020160009054906101000a900460ff16908060020160019054906101000a900473ffffffffffffffffffffffffffffffffffffffff16905084565b50805461058190610999565b6000825580601f1061059357506105b2565b601f0160209004906000526020600020908101906105b191906105b5565b5b50565b5b808211156105ce5760008160009055506001016105b6565b5090565b6000604051905090565b600080fd5b600080fd5b6000819050919050565b6105f9816105e6565b811461060457600080fd5b50565b600081359050610616816105f0565b92915050565b600060208284031215610632576106316105dc565b5b600061064084828501610607565b91505092915050565b600081519050919050565b600082825260208201905092915050565b60005b83811015610683578082015181840152602081019050610668565b60008484015250505050565b6000601f19601f8301169050919050565b60006106ab82610649565b6106b58185610654565b93506106c5818560208601610665565b6106ce8161068f565b840191505092915050565b6000819050919050565b6106ec816106d9565b82525050565b60008115159050919050565b610707816106f2565b82525050565b600073ffffffffffffffffffffffffffffffffffffffff82169050919050565b60006107388261070d565b9050919050565b6107488161072d565b82525050565b6000608082019050818103600083015261076881876106a0565b905061077760208301866106e3565b61078460408301856106fe565b610791606083018461073f565b95945050505050565b600080fd5b600080fd5b7f4e487b7100000000000000000000000000000000000000000000000000000000600052604160045260246000fd5b6107dc8261068f565b810181811067ffffffffffffffff821117156107fb576107fa6107a4565b5b80604052505050565b600061080e6105d2565b905061081a82826107d3565b919050565b600067ffffffffffffffff82111561083a576108396107a4565b5b6108438261068f565b9050602081019050919050565b82818337600083830152505050565b600061087261086d8461081f565b610804565b90508281526020810184848401111561088e5761088d61079f565b5b610899848285610850565b509392505050565b600082601f8301126108b6576108b561079a565b5b81356108c684826020860161085f565b91505092915050565b6108d8816106d9565b81146108e357600080fd5b50565b6000813590506108f5816108cf565b92915050565b600080600060608486031215610914576109136105dc565b5b600061092286828701610607565b935050602084013567ffffffffffffffff811115610943576109426105e1565b5b61094f868287016108a1565b9250506040610960868287016108e6565b9150509250925092565b7f4e487b7100000000000000000000000000000000000000000000000000000000600052602260045260246000fd5b600060028204905060018216806109b157607f821691505b6020821081036109c4576109c361096a565b5b50919050565b60008190508160005260206000209050919050565b60006020601f8301049050919050565b600082821b905092915050565b600060088302610a2c7fffffffffffffffffffffffffffffffffffffffffffffffffffffffffffffffff826109ef565b610a3686836109ef565b95508019841693508086168417925050509392505050565b6000819050919050565b6000610a73610a6e610a69846106d9565b610a4e565b6106d9565b9050919050565b6000819050919050565b610a8d83610a58565b610aa1610a9982610a7a565b8484546109fc565b825550505050565b600090565b610ab6610aa9565b610ac1818484610a84565b505050565b5b81811015610ae557610ada600082610aae565b600181019050610ac7565b5050565b601f821115610b2a57610afb816109ca565b610b04846109df565b81016020851015610b13578190505b610b27610b1f856109df565b830182610ac6565b50505b505050565b600082821c905092915050565b6000610b4d60001984600802610b2f565b1980831691505092915050565b6000610b668383610b3c565b9150826002028217905092915050565b610b7f82610649565b67ffffffffffffffff811115610b9857610b976107a4565b5b610ba28254610999565b610bad828285610ae9565b600060209050601f831160018114610be05760008415610bce578287015190505b610bd88582610b5a565b865550610c40565b601f198416610bee866109ca565b60005b82811015610c1657848901518255600182019150602085019450602081019050610bf1565b86831015610c335784890151610c2f601f891682610b3c565b8355505b6001600288020188555050505b505050505050565b60006040820190508181036000830152610c6281856106a0565b9050610c7160208301846106e3565b939250505056fea2646970667358221220ed15fd9634f4a3cf585ac5372bd44ff408693e0a813d0d0be0682459740a2ff464736f6c634300081a0033",
  "linkReferences": {},
  "deployedLinkReferences": {}
}